{
  "contractName": "Meme",
  "abi": [
    {
      "constant": true,
      "inputs": [
        {
          "internalType": "address",
          "name": "",
          "type": "address"
        },
        {
          "internalType": "address",
          "name": "",
          "type": "address"
        }
      ],
      "name": "DoctorToPatientAccessPermission",
      "outputs": [
        {
          "internalType": "bool",
          "name": "",
          "type": "bool"
        }
      ],
      "payable": false,
      "stateMutability": "view",
      "type": "function"
    },
    {
      "constant": true,
      "inputs": [
        {
          "internalType": "address",
          "name": "",
          "type": "address"
        }
      ],
      "name": "EncryptedPrivateKeyHashes",
      "outputs": [
        {
          "internalType": "string",
          "name": "",
          "type": "string"
        }
      ],
      "payable": false,
      "stateMutability": "view",
      "type": "function"
    },
    {
      "constant": true,
      "inputs": [
        {
          "internalType": "address",
          "name": "",
          "type": "address"
        },
        {
          "internalType": "uint256",
          "name": "",
          "type": "uint256"
        }
      ],
      "name": "doctorListOfEnrpytedPassphrases",
      "outputs": [
        {
          "internalType": "address",
          "name": "patientAddress",
          "type": "address"
        },
        {
          "internalType": "string",
          "name": "iv",
          "type": "string"
        },
        {
          "internalType": "string",
          "name": "ephemPublicKey",
          "type": "string"
        },
        {
          "internalType": "string",
          "name": "ciphertext",
          "type": "string"
        },
        {
          "internalType": "string",
          "name": "mac",
          "type": "string"
        }
      ],
      "payable": false,
      "stateMutability": "view",
      "type": "function"
    },
    {
      "constant": true,
      "inputs": [
        {
          "internalType": "address",
          "name": "",
          "type": "address"
        },
        {
          "internalType": "uint256",
          "name": "",
          "type": "uint256"
        }
      ],
      "name": "doctorListOfPatients",
      "outputs": [
        {
          "internalType": "address",
          "name": "",
          "type": "address"
        }
      ],
      "payable": false,
      "stateMutability": "view",
      "type": "function"
    },
    {
      "constant": true,
      "inputs": [
        {
          "internalType": "address",
          "name": "",
          "type": "address"
        },
        {
          "internalType": "uint256",
          "name": "",
          "type": "uint256"
        }
      ],
      "name": "fileHashes",
      "outputs": [
        {
          "internalType": "string",
          "name": "",
          "type": "string"
        }
      ],
      "payable": false,
      "stateMutability": "view",
      "type": "function"
    },
    {
      "constant": true,
      "inputs": [
        {
          "internalType": "address",
          "name": "",
          "type": "address"
        },
        {
          "internalType": "uint256",
          "name": "",
          "type": "uint256"
        }
      ],
      "name": "patientListOfDoctors",
      "outputs": [
        {
          "internalType": "address",
          "name": "",
          "type": "address"
        }
      ],
      "payable": false,
      "stateMutability": "view",
      "type": "function"
    },
    {
      "constant": true,
      "inputs": [
        {
          "internalType": "address",
          "name": "",
          "type": "address"
        }
      ],
      "name": "registeredDoctors",
      "outputs": [
        {
          "internalType": "bool",
          "name": "",
          "type": "bool"
        }
      ],
      "payable": false,
      "stateMutability": "view",
      "type": "function"
    },
    {
      "constant": true,
      "inputs": [
        {
          "internalType": "address",
          "name": "",
          "type": "address"
        }
      ],
      "name": "registeredPatients",
      "outputs": [
        {
          "internalType": "bool",
          "name": "",
          "type": "bool"
        }
      ],
      "payable": false,
      "stateMutability": "view",
      "type": "function"
    },
    {
      "constant": false,
      "inputs": [
        {
          "internalType": "address",
          "name": "_patientID",
          "type": "address"
        },
        {
          "internalType": "string",
          "name": "_fileHash",
          "type": "string"
        }
      ],
      "name": "addFileHash",
      "outputs": [],
      "payable": false,
      "stateMutability": "nonpayable",
      "type": "function"
    },
    {
      "constant": true,
      "inputs": [
        {
          "internalType": "address",
          "name": "_patientID",
          "type": "address"
        }
      ],
      "name": "getFileHashesCount",
      "outputs": [
        {
          "internalType": "uint256",
          "name": "",
          "type": "uint256"
        }
      ],
      "payable": false,
      "stateMutability": "view",
      "type": "function"
    },
    {
      "constant": true,
      "inputs": [
        {
          "internalType": "address",
          "name": "_patientID",
          "type": "address"
        }
      ],
      "name": "getPatientFileHashes",
      "outputs": [
        {
          "internalType": "string[]",
          "name": "",
          "type": "string[]"
        }
      ],
      "payable": false,
      "stateMutability": "view",
      "type": "function"
    },
    {
      "constant": false,
      "inputs": [
        {
          "internalType": "address",
          "name": "_doctorID",
          "type": "address"
        },
        {
          "internalType": "string",
          "name": "iv",
          "type": "string"
        },
        {
          "internalType": "string",
          "name": "ephemPublicKey",
          "type": "string"
        },
        {
          "internalType": "string",
          "name": "ciphertext",
          "type": "string"
        },
        {
          "internalType": "string",
          "name": "mac",
          "type": "string"
        }
      ],
      "name": "grantAccessToDoctor",
      "outputs": [],
      "payable": false,
      "stateMutability": "nonpayable",
      "type": "function"
    },
    {
      "constant": true,
      "inputs": [
        {
          "internalType": "address",
          "name": "_patientID",
          "type": "address"
        }
      ],
      "name": "getDoctorsCount",
      "outputs": [
        {
          "internalType": "uint256",
          "name": "",
          "type": "uint256"
        }
      ],
      "payable": false,
      "stateMutability": "view",
      "type": "function"
    },
    {
      "constant": true,
      "inputs": [
        {
          "internalType": "address",
          "name": "_patientID",
          "type": "address"
        }
      ],
      "name": "getPatientListOfDoctors",
      "outputs": [
        {
          "internalType": "address[]",
          "name": "",
          "type": "address[]"
        }
      ],
      "payable": false,
      "stateMutability": "view",
      "type": "function"
    },
    {
      "constant": true,
      "inputs": [
        {
          "internalType": "address",
          "name": "_doctorID",
          "type": "address"
        }
      ],
      "name": "getPatientsCount",
      "outputs": [
        {
          "internalType": "uint256",
          "name": "",
          "type": "uint256"
        }
      ],
      "payable": false,
      "stateMutability": "view",
      "type": "function"
    },
    {
      "constant": true,
      "inputs": [
        {
          "internalType": "address",
          "name": "_doctorID",
          "type": "address"
        }
      ],
      "name": "getDoctorListOfPatients",
      "outputs": [
        {
          "internalType": "address[]",
          "name": "",
          "type": "address[]"
        }
      ],
      "payable": false,
      "stateMutability": "view",
      "type": "function"
    },
    {
      "constant": false,
      "inputs": [
        {
          "internalType": "address",
          "name": "_doctorID",
          "type": "address"
        }
      ],
      "name": "revokeAccessFromDoctor",
      "outputs": [],
      "payable": false,
      "stateMutability": "nonpayable",
      "type": "function"
    },
    {
      "constant": false,
      "inputs": [
        {
          "internalType": "address",
          "name": "_patientID",
          "type": "address"
        },
        {
          "internalType": "string",
          "name": "hash",
          "type": "string"
        }
      ],
      "name": "registerPatient",
      "outputs": [],
      "payable": false,
      "stateMutability": "nonpayable",
      "type": "function"
    },
    {
      "constant": true,
      "inputs": [
        {
          "internalType": "address",
          "name": "_ID",
          "type": "address"
        }
      ],
      "name": "IsRegisteredPatient",
      "outputs": [
        {
          "internalType": "bool",
          "name": "",
          "type": "bool"
        }
      ],
      "payable": false,
      "stateMutability": "view",
      "type": "function"
    },
    {
      "constant": false,
      "inputs": [
        {
          "internalType": "address",
          "name": "_doctorID",
          "type": "address"
        },
        {
          "internalType": "string",
          "name": "hash",
          "type": "string"
        }
      ],
      "name": "registerDoctor",
      "outputs": [],
      "payable": false,
      "stateMutability": "nonpayable",
      "type": "function"
    },
    {
      "constant": true,
      "inputs": [
        {
          "internalType": "address",
          "name": "_ID",
          "type": "address"
        }
      ],
      "name": "IsRegisteredDoctor",
      "outputs": [
        {
          "internalType": "bool",
          "name": "",
          "type": "bool"
        }
      ],
      "payable": false,
      "stateMutability": "view",
      "type": "function"
    },
    {
      "constant": true,
      "inputs": [
        {
          "internalType": "address",
          "name": "_userID",
          "type": "address"
        }
      ],
      "name": "getEncryptedPrivateKeyHash",
      "outputs": [
        {
          "internalType": "string",
          "name": "",
          "type": "string"
        }
      ],
      "payable": false,
      "stateMutability": "view",
      "type": "function"
    },
    {
      "constant": true,
      "inputs": [
        {
          "internalType": "address",
          "name": "_doctorID",
          "type": "address"
        }
      ],
      "name": "getListOfEnrpytedPassphrases",
      "outputs": [
        {
          "components": [
            {
              "internalType": "address",
              "name": "patientAddress",
              "type": "address"
            },
            {
              "internalType": "string",
              "name": "iv",
              "type": "string"
            },
            {
              "internalType": "string",
              "name": "ephemPublicKey",
              "type": "string"
            },
            {
              "internalType": "string",
              "name": "ciphertext",
              "type": "string"
            },
            {
              "internalType": "string",
              "name": "mac",
              "type": "string"
            }
          ],
          "internalType": "struct Meme.EncryptedPassphrase[]",
          "name": "",
          "type": "tuple[]"
        }
      ],
      "payable": false,
      "stateMutability": "view",
      "type": "function"
    },
    {
      "constant": true,
      "inputs": [
        {
          "internalType": "address",
          "name": "_doctorID",
          "type": "address"
        }
      ],
      "name": "getEnrpytedPassphrasesCount",
      "outputs": [
        {
          "internalType": "uint256",
          "name": "",
          "type": "uint256"
        }
      ],
      "payable": false,
      "stateMutability": "view",
      "type": "function"
    }
  ],
  "bytecode": "0x608060405234801561001057600080fd5b506135d5806100206000396000f3fe608060405234801561001057600080fd5b50600436106101585760003560e01c806386d5a69c116100c3578063b8f384e81161007c578063b8f384e814610499578063cdf577c4146104c9578063d611af2c146104e5578063f2ca0b4114610515578063f5d58f6914610531578063fa9a2e301461056157610158565b806386d5a69c146103755780639cdaaad8146103a55780639e75cef3146103d55780639f5b431c14610405578063b2c84f7414610435578063b543857b1461046957610158565b806335b54c601161011557806335b54c601461027d5780633f308cd2146102ad5780634812afe1146102dd5780636056728b1461030d578063629e559d1461033d5780638048c2f01461035957610158565b806311e3293b1461015d5780631dccef3e1461018d578063219da225146101bd5780632482378d146101ed5780632683cb501461021d5780632a9c9dfe1461024d575b600080fd5b6101776004803603610172919081019061298b565b61057d565b6040516101849190613230565b60405180910390f35b6101a760048036036101a2919081019061298b565b6106d0565b6040516101b4919061320e565b60405180910390f35b6101d760048036036101d2919081019061298b565b610780565b6040516101e491906131f3565b60405180910390f35b6102076004803603610202919081019061298b565b6107dd565b604051610214919061318d565b60405180910390f35b6102376004803603610232919081019061298b565b61091c565b6040516102449190613372565b60405180910390f35b6102676004803603610262919081019061298b565b6109da565b60405161027491906131d1565b60405180910390f35b61029760048036036102929190810190612b1b565b610dc8565b6040516102a49190613103565b60405180910390f35b6102c760048036036102c2919081019061298b565b610e13565b6040516102d491906131f3565b60405180910390f35b6102f760048036036102f2919081019061298b565b610e33565b60405161030491906131af565b60405180910390f35b6103276004803603610322919081019061298b565b610fcc565b60405161033491906131f3565b60405180910390f35b6103576004803603610352919081019061298b565b611029565b005b610373600480360361036e91908101906129f0565b611627565b005b61038f600480360361038a9190810190612b1b565b611792565b60405161039c9190613103565b60405180910390f35b6103bf60048036036103ba919081019061298b565b6117dd565b6040516103cc91906131f3565b60405180910390f35b6103ef60048036036103ea919081019061298b565b6117fd565b6040516103fc9190613372565b60405180910390f35b61041f600480360361041a9190810190612b1b565b6118ba565b60405161042c919061320e565b60405180910390f35b61044f600480360361044a9190810190612b1b565b611980565b60405161046095949392919061311e565b60405180910390f35b610483600480360361047e919081019061298b565b611c50565b604051610490919061318d565b60405180910390f35b6104b360048036036104ae91908101906129b4565b611d8f565b6040516104c091906131f3565b60405180910390f35b6104e360048036036104de9190810190612a44565b611dbe565b005b6104ff60048036036104fa919081019061298b565b61236b565b60405161050c9190613372565b60405180910390f35b61052f600480360361052a91908101906129f0565b612429565b005b61054b6004803603610546919081019061298b565b612594565b6040516105589190613372565b60405180910390f35b61057b600480360361057691908101906129f0565b612652565b005b606081600073ffffffffffffffffffffffffffffffffffffffff168173ffffffffffffffffffffffffffffffffffffffff1614156105f0576040517f08c379a00000000000000000000000000000000000000000000000000000000081526004016105e790613272565b60405180910390fd5b600760008473ffffffffffffffffffffffffffffffffffffffff1673ffffffffffffffffffffffffffffffffffffffff1681526020019081526020016000208054600181600116156101000203166002900480601f0160208091040260200160405190810160405280929190818152602001828054600181600116156101000203166002900480156106c35780601f10610698576101008083540402835291602001916106c3565b820191906000526020600020905b8154815290600101906020018083116106a657829003601f168201915b5050505050915050919050565b60076020528060005260406000206000915090508054600181600116156101000203166002900480601f0160208091040260200160405190810160405280929190818152602001828054600181600116156101000203166002900480156107785780601f1061074d57610100808354040283529160200191610778565b820191906000526020600020905b81548152906001019060200180831161075b57829003601f168201915b505050505081565b600060011515600460008473ffffffffffffffffffffffffffffffffffffffff1673ffffffffffffffffffffffffffffffffffffffff16815260200190815260200160002060009054906101000a900460ff161515149050919050565b606081600073ffffffffffffffffffffffffffffffffffffffff168173ffffffffffffffffffffffffffffffffffffffff161415610850576040517f08c379a000000000000000000000000000000000000000000000000000000000815260040161084790613272565b60405180910390fd5b600260008473ffffffffffffffffffffffffffffffffffffffff1673ffffffffffffffffffffffffffffffffffffffff16815260200190815260200160002080548060200260200160405190810160405280929190818152602001828054801561090f57602002820191906000526020600020905b8160009054906101000a900473ffffffffffffffffffffffffffffffffffffffff1673ffffffffffffffffffffffffffffffffffffffff16815260200190600101908083116108c5575b5050505050915050919050565b600081600073ffffffffffffffffffffffffffffffffffffffff168173ffffffffffffffffffffffffffffffffffffffff16141561098f576040517f08c379a000000000000000000000000000000000000000000000000000000000815260040161098690613272565b60405180910390fd5b600160008473ffffffffffffffffffffffffffffffffffffffff1673ffffffffffffffffffffffffffffffffffffffff16815260200190815260200160002080549050915050919050565b606081600073ffffffffffffffffffffffffffffffffffffffff168173ffffffffffffffffffffffffffffffffffffffff161415610a4d576040517f08c379a0000000000000000000000000000000000000000000000000000000008152600401610a4490613272565b60405180910390fd5b600660008473ffffffffffffffffffffffffffffffffffffffff1673ffffffffffffffffffffffffffffffffffffffff168152602001908152602001600020805480602002602001604051908101604052809291908181526020016000905b82821015610dbc57838290600052602060002090600502016040518060a00160405290816000820160009054906101000a900473ffffffffffffffffffffffffffffffffffffffff1673ffffffffffffffffffffffffffffffffffffffff1673ffffffffffffffffffffffffffffffffffffffff168152602001600182018054600181600116156101000203166002900480601f016020809104026020016040519081016040528092919081815260200182805460018160011615610100020316600290048015610bbe5780601f10610b9357610100808354040283529160200191610bbe565b820191906000526020600020905b815481529060010190602001808311610ba157829003601f168201915b50505050508152602001600282018054600181600116156101000203166002900480601f016020809104026020016040519081016040528092919081815260200182805460018160011615610100020316600290048015610c605780601f10610c3557610100808354040283529160200191610c60565b820191906000526020600020905b815481529060010190602001808311610c4357829003601f168201915b50505050508152602001600382018054600181600116156101000203166002900480601f016020809104026020016040519081016040528092919081815260200182805460018160011615610100020316600290048015610d025780601f10610cd757610100808354040283529160200191610d02565b820191906000526020600020905b815481529060010190602001808311610ce557829003601f168201915b50505050508152602001600482018054600181600116156101000203166002900480601f016020809104026020016040519081016040528092919081815260200182805460018160011615610100020316600290048015610da45780601f10610d7957610100808354040283529160200191610da4565b820191906000526020600020905b815481529060010190602001808311610d8757829003601f168201915b50505050508152505081526020019060010190610aac565b50505050915050919050565b60026020528160005260406000208181548110610de157fe5b906000526020600020016000915091509054906101000a900473ffffffffffffffffffffffffffffffffffffffff1681565b60056020528060005260406000206000915054906101000a900460ff1681565b606081600073ffffffffffffffffffffffffffffffffffffffff168173ffffffffffffffffffffffffffffffffffffffff161415610ea6576040517f08c379a0000000000000000000000000000000000000000000000000000000008152600401610e9d90613272565b60405180910390fd5b6000808473ffffffffffffffffffffffffffffffffffffffff1673ffffffffffffffffffffffffffffffffffffffff168152602001908152602001600020805480602002602001604051908101604052809291908181526020016000905b82821015610fc0578382906000526020600020018054600181600116156101000203166002900480601f016020809104026020016040519081016040528092919081815260200182805460018160011615610100020316600290048015610fac5780601f10610f8157610100808354040283529160200191610fac565b820191906000526020600020905b815481529060010190602001808311610f8f57829003601f168201915b505050505081526020019060010190610f04565b50505050915050919050565b600060011515600560008473ffffffffffffffffffffffffffffffffffffffff1673ffffffffffffffffffffffffffffffffffffffff16815260200190815260200160002060009054906101000a900460ff161515149050919050565b80600073ffffffffffffffffffffffffffffffffffffffff168173ffffffffffffffffffffffffffffffffffffffff16141561109a576040517f08c379a000000000000000000000000000000000000000000000000000000000815260040161109190613272565b60405180910390fd5b60011515600360008473ffffffffffffffffffffffffffffffffffffffff1673ffffffffffffffffffffffffffffffffffffffff16815260200190815260200160002060003373ffffffffffffffffffffffffffffffffffffffff1673ffffffffffffffffffffffffffffffffffffffff16815260200190815260200160002060009054906101000a900460ff1615151461116a576040517f08c379a000000000000000000000000000000000000000000000000000000000815260040161116190613332565b60405180910390fd5b6000600360008473ffffffffffffffffffffffffffffffffffffffff1673ffffffffffffffffffffffffffffffffffffffff16815260200190815260200160002060003373ffffffffffffffffffffffffffffffffffffffff1673ffffffffffffffffffffffffffffffffffffffff16815260200190815260200160002060006101000a81548160ff0219169083151502179055506000600160003373ffffffffffffffffffffffffffffffffffffffff1673ffffffffffffffffffffffffffffffffffffffff168152602001908152602001600020905060008090505b8180549050811015611343578373ffffffffffffffffffffffffffffffffffffffff1682828154811061127757fe5b9060005260206000200160009054906101000a900473ffffffffffffffffffffffffffffffffffffffff1673ffffffffffffffffffffffffffffffffffffffff16141561133657600160003373ffffffffffffffffffffffffffffffffffffffff1673ffffffffffffffffffffffffffffffffffffffff168152602001908152602001600020818154811061130857fe5b9060005260206000200160006101000a81549073ffffffffffffffffffffffffffffffffffffffff02191690555b8080600101915050611248565b506000600260008573ffffffffffffffffffffffffffffffffffffffff1673ffffffffffffffffffffffffffffffffffffffff168152602001908152602001600020905060008090505b8180549050811015611488573373ffffffffffffffffffffffffffffffffffffffff168282815481106113bc57fe5b9060005260206000200160009054906101000a900473ffffffffffffffffffffffffffffffffffffffff1673ffffffffffffffffffffffffffffffffffffffff16141561147b57600260008673ffffffffffffffffffffffffffffffffffffffff1673ffffffffffffffffffffffffffffffffffffffff168152602001908152602001600020818154811061144d57fe5b9060005260206000200160006101000a81549073ffffffffffffffffffffffffffffffffffffffff02191690555b808060010191505061138d565b506000600660008673ffffffffffffffffffffffffffffffffffffffff1673ffffffffffffffffffffffffffffffffffffffff168152602001908152602001600020905060008090505b818054905081101561161f573373ffffffffffffffffffffffffffffffffffffffff1682828154811061150157fe5b906000526020600020906005020160000160009054906101000a900473ffffffffffffffffffffffffffffffffffffffff1673ffffffffffffffffffffffffffffffffffffffff16141561161257600660008773ffffffffffffffffffffffffffffffffffffffff1673ffffffffffffffffffffffffffffffffffffffff168152602001908152602001600020818154811061159957fe5b9060005260206000209060050201600080820160006101000a81549073ffffffffffffffffffffffffffffffffffffffff02191690556001820160006115df91906127a0565b6002820160006115ef91906127a0565b6003820160006115ff91906127a0565b60048201600061160f91906127a0565b50505b80806001019150506114d2565b505050505050565b81600073ffffffffffffffffffffffffffffffffffffffff168173ffffffffffffffffffffffffffffffffffffffff161415611698576040517f08c379a000000000000000000000000000000000000000000000000000000000815260040161168f90613272565b60405180910390fd5b6116a18261278c565b156116e1576040517f08c379a00000000000000000000000000000000000000000000000000000000081526004016116d890613292565b60405180910390fd5b6001600460008573ffffffffffffffffffffffffffffffffffffffff1673ffffffffffffffffffffffffffffffffffffffff16815260200190815260200160002060006101000a81548160ff02191690831515021790555081600760008573ffffffffffffffffffffffffffffffffffffffff1673ffffffffffffffffffffffffffffffffffffffff168152602001908152602001600020908051906020019061178c9291906127e8565b50505050565b600160205281600052604060002081815481106117ab57fe5b906000526020600020016000915091509054906101000a900473ffffffffffffffffffffffffffffffffffffffff1681565b60046020528060005260406000206000915054906101000a900460ff1681565b600081600073ffffffffffffffffffffffffffffffffffffffff168173ffffffffffffffffffffffffffffffffffffffff161415611870576040517f08c379a000000000000000000000000000000000000000000000000000000000815260040161186790613272565b60405180910390fd5b6000808473ffffffffffffffffffffffffffffffffffffffff1673ffffffffffffffffffffffffffffffffffffffff16815260200190815260200160002080549050915050919050565b600060205281600052604060002081815481106118d357fe5b90600052602060002001600091509150508054600181600116156101000203166002900480601f0160208091040260200160405190810160405280929190818152602001828054600181600116156101000203166002900480156119785780601f1061194d57610100808354040283529160200191611978565b820191906000526020600020905b81548152906001019060200180831161195b57829003601f168201915b505050505081565b6006602052816000526040600020818154811061199957fe5b9060005260206000209060050201600091509150508060000160009054906101000a900473ffffffffffffffffffffffffffffffffffffffff1690806001018054600181600116156101000203166002900480601f016020809104026020016040519081016040528092919081815260200182805460018160011615610100020316600290048015611a6c5780601f10611a4157610100808354040283529160200191611a6c565b820191906000526020600020905b815481529060010190602001808311611a4f57829003601f168201915b505050505090806002018054600181600116156101000203166002900480601f016020809104026020016040519081016040528092919081815260200182805460018160011615610100020316600290048015611b0a5780601f10611adf57610100808354040283529160200191611b0a565b820191906000526020600020905b815481529060010190602001808311611aed57829003601f168201915b505050505090806003018054600181600116156101000203166002900480601f016020809104026020016040519081016040528092919081815260200182805460018160011615610100020316600290048015611ba85780601f10611b7d57610100808354040283529160200191611ba8565b820191906000526020600020905b815481529060010190602001808311611b8b57829003601f168201915b505050505090806004018054600181600116156101000203166002900480601f016020809104026020016040519081016040528092919081815260200182805460018160011615610100020316600290048015611c465780601f10611c1b57610100808354040283529160200191611c46565b820191906000526020600020905b815481529060010190602001808311611c2957829003601f168201915b5050505050905085565b606081600073ffffffffffffffffffffffffffffffffffffffff168173ffffffffffffffffffffffffffffffffffffffff161415611cc3576040517f08c379a0000000000000000000000000000000000000000000000000000000008152600401611cba90613272565b60405180910390fd5b600160008473ffffffffffffffffffffffffffffffffffffffff1673ffffffffffffffffffffffffffffffffffffffff168152602001908152602001600020805480602002602001604051908101604052809291908181526020018280548015611d8257602002820191906000526020600020905b8160009054906101000a900473ffffffffffffffffffffffffffffffffffffffff1673ffffffffffffffffffffffffffffffffffffffff1681526020019060010190808311611d38575b5050505050915050919050565b60036020528160005260406000206020528060005260406000206000915091509054906101000a900460ff1681565b84600073ffffffffffffffffffffffffffffffffffffffff168173ffffffffffffffffffffffffffffffffffffffff161415611e2f576040517f08c379a0000000000000000000000000000000000000000000000000000000008152600401611e2690613272565b60405180910390fd5b611e388561278c565b15611e78576040517f08c379a0000000000000000000000000000000000000000000000000000000008152600401611e6f906132f2565b60405180910390fd5b611e818461278c565b15611ec1576040517f08c379a0000000000000000000000000000000000000000000000000000000008152600401611eb890613252565b60405180910390fd5b611eca8361278c565b15611f0a576040517f08c379a0000000000000000000000000000000000000000000000000000000008152600401611f01906132b2565b60405180910390fd5b611f138261278c565b15611f53576040517f08c379a0000000000000000000000000000000000000000000000000000000008152600401611f4a90613352565b60405180910390fd5b60001515600360008873ffffffffffffffffffffffffffffffffffffffff1673ffffffffffffffffffffffffffffffffffffffff16815260200190815260200160002060003373ffffffffffffffffffffffffffffffffffffffff1673ffffffffffffffffffffffffffffffffffffffff16815260200190815260200160002060009054906101000a900460ff16151514612023576040517f08c379a000000000000000000000000000000000000000000000000000000000815260040161201a90613312565b60405180910390fd5b6001600360008873ffffffffffffffffffffffffffffffffffffffff1673ffffffffffffffffffffffffffffffffffffffff16815260200190815260200160002060003373ffffffffffffffffffffffffffffffffffffffff1673ffffffffffffffffffffffffffffffffffffffff16815260200190815260200160002060006101000a81548160ff021916908315150217905550600160003373ffffffffffffffffffffffffffffffffffffffff1673ffffffffffffffffffffffffffffffffffffffff1681526020019081526020016000208690806001815401808255809150509060018203906000526020600020016000909192909190916101000a81548173ffffffffffffffffffffffffffffffffffffffff021916908373ffffffffffffffffffffffffffffffffffffffff16021790555050600260008773ffffffffffffffffffffffffffffffffffffffff1673ffffffffffffffffffffffffffffffffffffffff1681526020019081526020016000203390806001815401808255809150509060018203906000526020600020016000909192909190916101000a81548173ffffffffffffffffffffffffffffffffffffffff021916908373ffffffffffffffffffffffffffffffffffffffff16021790555050600660008773ffffffffffffffffffffffffffffffffffffffff1673ffffffffffffffffffffffffffffffffffffffff1681526020019081526020016000206040518060a001604052803373ffffffffffffffffffffffffffffffffffffffff168152602001878152602001868152602001858152602001848152509080600181540180825580915050906001820390600052602060002090600502016000909192909190915060008201518160000160006101000a81548173ffffffffffffffffffffffffffffffffffffffff021916908373ffffffffffffffffffffffffffffffffffffffff1602179055506020820151816001019080519060200190612308929190612868565b506040820151816002019080519060200190612325929190612868565b506060820151816003019080519060200190612342929190612868565b50608082015181600401908051906020019061235f929190612868565b50505050505050505050565b600081600073ffffffffffffffffffffffffffffffffffffffff168173ffffffffffffffffffffffffffffffffffffffff1614156123de576040517f08c379a00000000000000000000000000000000000000000000000000000000081526004016123d590613272565b60405180910390fd5b600660008473ffffffffffffffffffffffffffffffffffffffff1673ffffffffffffffffffffffffffffffffffffffff16815260200190815260200160002080549050915050919050565b81600073ffffffffffffffffffffffffffffffffffffffff168173ffffffffffffffffffffffffffffffffffffffff16141561249a576040517f08c379a000000000000000000000000000000000000000000000000000000000815260040161249190613272565b60405180910390fd5b6124a38261278c565b156124e3576040517f08c379a00000000000000000000000000000000000000000000000000000000081526004016124da90613292565b60405180910390fd5b6001600560008573ffffffffffffffffffffffffffffffffffffffff1673ffffffffffffffffffffffffffffffffffffffff16815260200190815260200160002060006101000a81548160ff02191690831515021790555081600760008573ffffffffffffffffffffffffffffffffffffffff1673ffffffffffffffffffffffffffffffffffffffff168152602001908152602001600020908051906020019061258e9291906127e8565b50505050565b600081600073ffffffffffffffffffffffffffffffffffffffff168173ffffffffffffffffffffffffffffffffffffffff161415612607576040517f08c379a00000000000000000000000000000000000000000000000000000000081526004016125fe90613272565b60405180910390fd5b600260008473ffffffffffffffffffffffffffffffffffffffff1673ffffffffffffffffffffffffffffffffffffffff16815260200190815260200160002080549050915050919050565b81600073ffffffffffffffffffffffffffffffffffffffff168173ffffffffffffffffffffffffffffffffffffffff1614156126c3576040517f08c379a00000000000000000000000000000000000000000000000000000000081526004016126ba90613272565b60405180910390fd5b6126cc8261278c565b1561270c576040517f08c379a0000000000000000000000000000000000000000000000000000000008152600401612703906132d2565b60405180910390fd5b6000808473ffffffffffffffffffffffffffffffffffffffff1673ffffffffffffffffffffffffffffffffffffffff1681526020019081526020016000208290806001815401808255809150509060018203906000526020600020016000909192909190915090805190602001906127859291906127e8565b5050505050565b600060608290506000815114915050919050565b50805460018160011615610100020316600290046000825580601f106127c657506127e5565b601f0160209004906000526020600020908101906127e491906128e8565b5b50565b828054600181600116156101000203166002900490600052602060002090601f016020900481019282601f1061282957805160ff1916838001178555612857565b82800160010185558215612857579182015b8281111561285657825182559160200191906001019061283b565b5b50905061286491906128e8565b5090565b828054600181600116156101000203166002900490600052602060002090601f016020900481019282601f106128a957805160ff19168380011785556128d7565b828001600101855582156128d7579182015b828111156128d65782518255916020019190600101906128bb565b5b5090506128e491906128e8565b5090565b61290a91905b808211156129065760008160009055506001016128ee565b5090565b90565b60008135905061291c81613564565b92915050565b600082601f83011261293357600080fd5b8135612946612941826133ba565b61338d565b9150808252602083016020830185838301111561296257600080fd5b61296d838284613511565b50505092915050565b6000813590506129858161357b565b92915050565b60006020828403121561299d57600080fd5b60006129ab8482850161290d565b91505092915050565b600080604083850312156129c757600080fd5b60006129d58582860161290d565b92505060206129e68582860161290d565b9150509250929050565b60008060408385031215612a0357600080fd5b6000612a118582860161290d565b925050602083013567ffffffffffffffff811115612a2e57600080fd5b612a3a85828601612922565b9150509250929050565b600080600080600060a08688031215612a5c57600080fd5b6000612a6a8882890161290d565b955050602086013567ffffffffffffffff811115612a8757600080fd5b612a9388828901612922565b945050604086013567ffffffffffffffff811115612ab057600080fd5b612abc88828901612922565b935050606086013567ffffffffffffffff811115612ad957600080fd5b612ae588828901612922565b925050608086013567ffffffffffffffff811115612b0257600080fd5b612b0e88828901612922565b9150509295509295909350565b60008060408385031215612b2e57600080fd5b6000612b3c8582860161290d565b9250506020612b4d85828601612976565b9150509250929050565b6000612b638383612b97565b60208301905092915050565b6000612b7b8383612d45565b905092915050565b6000612b8f8383613069565b905092915050565b612ba0816134c9565b82525050565b612baf816134c9565b82525050565b6000612bc082613416565b612bca8185613474565b9350612bd5836133e6565b8060005b83811015612c06578151612bed8882612b57565b9750612bf88361344d565b925050600181019050612bd9565b5085935050505092915050565b6000612c1e82613421565b612c288185613485565b935083602082028501612c3a856133f6565b8060005b85811015612c765784840389528151612c578582612b6f565b9450612c628361345a565b925060208a01995050600181019050612c3e565b50829750879550505050505092915050565b6000612c938261342c565b612c9d8185613496565b935083602082028501612caf85613406565b8060005b85811015612ceb5784840389528151612ccc8582612b83565b9450612cd783613467565b925060208a01995050600181019050612cb3565b50829750879550505050505092915050565b612d06816134db565b82525050565b6000612d1782613442565b612d2181856134b8565b9350612d31818560208601613520565b612d3a81613553565b840191505092915050565b6000612d5082613437565b612d5a81856134a7565b9350612d6a818560208601613520565b612d7381613553565b840191505092915050565b6000612d8982613437565b612d9381856134b8565b9350612da3818560208601613520565b612dac81613553565b840191505092915050565b6000612dc46024836134b8565b91507f657068656d5075626c69634b65792073686f756c64206e6f7420626520656d7060008301527f74792021000000000000000000000000000000000000000000000000000000006020830152604082019050919050565b6000612e2a6015836134b8565b91507f54686520757365722073686f756c6420657869737400000000000000000000006000830152602082019050919050565b6000612e6a601a836134b8565b91507f686173682073686f756c64206e6f7420626520656d70747920210000000000006000830152602082019050919050565b6000612eaa6020836134b8565b91507f636970686572746578742073686f756c64206e6f7420626520656d70747920216000830152602082019050919050565b6000612eea6020836134b8565b91507f2046696c6520686173682073686f756c64206e6f7420626520656d70747920216000830152602082019050919050565b6000612f2a6018836134b8565b91507f69762073686f756c64206e6f7420626520656d707479202100000000000000006000830152602082019050919050565b6000612f6a6025836134b8565b91507f20416e206163636573732068617320616c7265616479206265656e206772616e60008301527f74656420210000000000000000000000000000000000000000000000000000006020830152604082019050919050565b6000612fd06028836134b8565b91507f20596f752063616e6e6f74207265766f6b652061206e6f6e2d6578697374696e60008301527f67206163636573730000000000000000000000000000000000000000000000006020830152604082019050919050565b60006130366019836134b8565b91507f6d61632073686f756c64206e6f7420626520656d7074792021000000000000006000830152602082019050919050565b600060a0830160008301516130816000860182612b97565b50602083015184820360208601526130998282612d45565b915050604083015184820360408601526130b38282612d45565b915050606083015184820360608601526130cd8282612d45565b915050608083015184820360808601526130e78282612d45565b9150508091505092915050565b6130fd81613507565b82525050565b60006020820190506131186000830184612ba6565b92915050565b600060a0820190506131336000830188612ba6565b81810360208301526131458187612d7e565b905081810360408301526131598186612d7e565b9050818103606083015261316d8185612d7e565b905081810360808301526131818184612d7e565b90509695505050505050565b600060208201905081810360008301526131a78184612bb5565b905092915050565b600060208201905081810360008301526131c98184612c13565b905092915050565b600060208201905081810360008301526131eb8184612c88565b905092915050565b60006020820190506132086000830184612cfd565b92915050565b600060208201905081810360008301526132288184612d7e565b905092915050565b6000602082019050818103600083015261324a8184612d0c565b905092915050565b6000602082019050818103600083015261326b81612db7565b9050919050565b6000602082019050818103600083015261328b81612e1d565b9050919050565b600060208201905081810360008301526132ab81612e5d565b9050919050565b600060208201905081810360008301526132cb81612e9d565b9050919050565b600060208201905081810360008301526132eb81612edd565b9050919050565b6000602082019050818103600083015261330b81612f1d565b9050919050565b6000602082019050818103600083015261332b81612f5d565b9050919050565b6000602082019050818103600083015261334b81612fc3565b9050919050565b6000602082019050818103600083015261336b81613029565b9050919050565b600060208201905061338760008301846130f4565b92915050565b6000604051905081810181811067ffffffffffffffff821117156133b057600080fd5b8060405250919050565b600067ffffffffffffffff8211156133d157600080fd5b601f19601f8301169050602081019050919050565b6000819050602082019050919050565b6000819050602082019050919050565b6000819050602082019050919050565b600081519050919050565b600081519050919050565b600081519050919050565b600081519050919050565b600081519050919050565b6000602082019050919050565b6000602082019050919050565b6000602082019050919050565b600082825260208201905092915050565b600082825260208201905092915050565b600082825260208201905092915050565b600082825260208201905092915050565b600082825260208201905092915050565b60006134d4826134e7565b9050919050565b60008115159050919050565b600073ffffffffffffffffffffffffffffffffffffffff82169050919050565b6000819050919050565b82818337600083830152505050565b60005b8381101561353e578082015181840152602081019050613523565b8381111561354d576000848401525b50505050565b6000601f19601f8301169050919050565b61356d816134c9565b811461357857600080fd5b50565b61358481613507565b811461358f57600080fd5b5056fea365627a7a72315820f3df6c896e3e8d1368311c4eebc10cd9cc0e077db2f393846101641cf065a4ea6c6578706572696d656e74616cf564736f6c63430005100040",
  "source": "pragma solidity ^0.5.0;\npragma experimental ABIEncoderV2; // needed to allow us to return an array from a function\n\ncontract Meme {\n \n/****************************************************************************************************************\nDATA STRUCTRUES\n ****************************************************************************************************************/\n    // A mapping to keep track of file hashes returned from IPFS for each patient\n    mapping(address => string []) public fileHashes;\n    // A mapping to keep track of the list of doctors who have access to the meidcal files of each patient\n    mapping(address => address []) public patientListOfDoctors;\n    // A mapping to keep track of the list of patients a doctor has access to their medical files\n    mapping(address => address []) public doctorListOfPatients;\n    // A mapping to keep track of doctor-to-patient access permission\n    mapping (address => mapping (address => bool)) public DoctorToPatientAccessPermission;\n    // A mapping to keep track of all registered patients\n    mapping (address => bool) public registeredPatients;\n    // A mapping to keep track of all registered doctors\n    mapping (address => bool) public registeredDoctors;\n   // A struct to hold encrpyted passphrases/secrey keys and a mapping to keep track of all encrpyted passphrases/secret keys for a doctor\n    struct EncryptedPassphrase{\n            address patientAddress;\n            string iv;\n            string ephemPublicKey;\n            string ciphertext;\n            string mac;\n   }\n   mapping(address => EncryptedPassphrase [] ) public doctorListOfEnrpytedPassphrases;  // The \"address key\" here refers to the doctor's address\n   // A mapping to keep track of the hashes of the encrpyted prviate keys for all users (i.e patient or doctor);\n   mapping (address => string) public EncryptedPrivateKeyHashes;\n\n/****************************************************************************************************************\nMEDICAL FILE HASHES\n ****************************************************************************************************************/\n    // Store the file hash returned from IPFS for a file upload made by a patient on the blockchain\n    function addFileHash( address _patientID  ,string memory _fileHash) public  userExists(_patientID)  {\n       require (!isEmptyString(_fileHash) ,\" File hash should not be empty !\"); \n       fileHashes[_patientID].push(_fileHash);\n    }\n      // Get the number of file hashes sotred on the blockchain for a patient\n    function getFileHashesCount(address _patientID)  view public  userExists(_patientID) returns (uint) {\n       return fileHashes[_patientID].length;\n    }\n    // Get all the file hashes for a patient\n    function getPatientFileHashes(address _patientID)  view public  userExists(_patientID)   returns (string [] memory) {\n       return fileHashes [_patientID];\n    }\n/****************************************************************************************************************\nGRANTING ACCESS\n ****************************************************************************************************************/\n    // A patient grants a doctor an access to his/her medical documents.\n    \n    function grantAccessToDoctor ( address _doctorID, string memory iv, string memory ephemPublicKey, string memory ciphertext, string memory mac ) public userExists(_doctorID)  {\n       require (!isEmptyString(iv) ,\"iv should not be empty !\");\n       require (!isEmptyString(ephemPublicKey) ,\"ephemPublicKey should not be empty !\");\n       require (!isEmptyString(ciphertext) ,\"ciphertext should not be empty !\");\n       require (!isEmptyString(mac) ,\"mac should not be empty !\");\n       require ( DoctorToPatientAccessPermission [_doctorID] [msg.sender] == false, \" An access has already been granted !\");\n       DoctorToPatientAccessPermission [_doctorID] [msg.sender] = true; // give the doctor access to the patient's medical documents\n       patientListOfDoctors[msg.sender].push(_doctorID); // add the doctor to the patient's list of doctors\n       doctorListOfPatients[_doctorID].push(msg.sender); // add the patient to the doctor's list of patients\n       doctorListOfEnrpytedPassphrases [_doctorID].push(EncryptedPassphrase(msg.sender,iv,ephemPublicKey,ciphertext,mac)); // store the added the encrpyted passphrase on the blockchain\n    }\n     // Get the number of doctors with access to the medical files of a patient \n    function getDoctorsCount(address _patientID)  view public  userExists(_patientID)  returns (uint) {\n       return patientListOfDoctors[_patientID].length;\n    }\n   // Get the list of doctors with access to the medical files of a patient\n    function getPatientListOfDoctors(address _patientID)  view public  userExists(_patientID) returns (address [] memory) {\n       return patientListOfDoctors [_patientID];\n    }\n\n   // Get the number of patients who have given a specific doctor access to their medical files \n    function getPatientsCount(address _doctorID)  view public  userExists(_doctorID)  returns (uint) {\n       return doctorListOfPatients[_doctorID].length;\n    }\n   // Get the list of patients who have given a specific doctor access to their medical files\n    function getDoctorListOfPatients(address _doctorID)  view public  userExists(_doctorID) returns (address [] memory) {\n       return doctorListOfPatients[_doctorID];\n    }\n\n\n/****************************************************************************************************************\nREVOKING ACCESS\n ****************************************************************************************************************/\n // A patient revokes a doctor's access to his/her medical files.\n    function revokeAccessFromDoctor ( address _doctorID )  public userExists(_doctorID)  {\n       require ( DoctorToPatientAccessPermission [_doctorID] [msg.sender] == true  , \" You cannot revoke a non-existing access\" );\n       DoctorToPatientAccessPermission [_doctorID] [msg.sender] = false ; // revoke the doctor's access\n        \n       // Deleting the doctor from the patient's list of doctors.\n       address [] storage doctorIds = patientListOfDoctors[msg.sender];\n       for (uint i=0; i< doctorIds.length; i++ ){\n            if ( doctorIds[i] == _doctorID ){\n                  delete patientListOfDoctors[msg.sender][i]; // Equivalent to patientListOfDoctors[msg.sender][i] =0x0000000000000000000000000000000000000000;\n            }\n         }\n\n      // Deleting the patient from the doctor's list of patients\n      address [] storage patientIds= doctorListOfPatients[_doctorID];\n      for (uint i=0; i< patientIds.length; i++ ){\n            if ( patientIds[i] == msg.sender ){\n                delete doctorListOfPatients[_doctorID][i];  // Equivalent to doctorListOfPatients[_doctorID][i] =0x0000000000000000000000000000000000000000;\n            }\n      }\n\n      // Deleting the patient's ecnrpyted passphrase from the doctor's list of patients' encrpyted passphrases\n      EncryptedPassphrase [] storage doctorEncryptedPassphrases = doctorListOfEnrpytedPassphrases[_doctorID];\n      for (uint i=0; i< doctorEncryptedPassphrases.length; i++ ){\n            if ( doctorEncryptedPassphrases[i].patientAddress == msg.sender ){\n                delete doctorListOfEnrpytedPassphrases[_doctorID][i];  // Equivalent to setting the patientAddress element in this struct to 0x0000000000000000000000000000000000000000;\n            }\n      }\n\n\n\n    }\n\n/****************************************************************************************************************\nUSER REGISTRATION\n****************************************************************************************************************/\n    // Registering a paitent\n    function registerPatient (address _patientID, string memory hash) userExists(_patientID)  public {\n      //require (patients[msg.sender].isRegistered == false, \" The patient is already registered\");\n       require (!isEmptyString(hash) ,\"hash should not be empty !\");\n       registeredPatients[_patientID]=true;\n         EncryptedPrivateKeyHashes[_patientID]=hash;\n    }\n   // Determine whether or not the account is a registered patient\n    function IsRegisteredPatient (address _ID)  view public returns (bool) {\n       return  registeredPatients[_ID] == true ;\n    }\n  \n    // Registering a doctor\n    function registerDoctor (address _doctorID, string memory hash) userExists(_doctorID)  public {\n      require (!isEmptyString(hash) ,\"hash should not be empty !\");\n       registeredDoctors[_doctorID]=true;\n       EncryptedPrivateKeyHashes[_doctorID]=hash;\n    }\n    // Determine whether or not the account is a registered doctor\n    function IsRegisteredDoctor (address _ID)  view public returns (bool) {\n       return registeredDoctors[_ID] ==true;\n    }\n\n   // return the hash of the user's encrpyted private key\n   function getEncryptedPrivateKeyHash(address _userID)  view public  userExists(_userID)  returns (string memory) {\n       return EncryptedPrivateKeyHashes[_userID];\n    }\n    \n\n/****************************************************************************************************************\nPASSPHRASES:\n****************************************************************************************************************/\n\n    // Get all Encrypted Passphrases for a docotor\n    function getListOfEnrpytedPassphrases(address _doctorID)  view public  userExists(_doctorID) returns (EncryptedPassphrase [] memory) {\n       return doctorListOfEnrpytedPassphrases[_doctorID];\n    }\n    \n    // Get the number of EncryptedPassphrases sotred on the blockchain for a docotor\n    function getEnrpytedPassphrasesCount(address _doctorID)  view public  userExists(_doctorID)  returns (uint) {\n       return doctorListOfEnrpytedPassphrases[_doctorID].length;\n    }\n    \n\n/****************************************************************************************************************\nINTERNAL FUNCTIONS\n ****************************************************************************************************************/\n   // check if the passed string is empty or not\n    function isEmptyString(string memory _str) pure internal returns(bool) {\n      bytes memory bytesStr = bytes(_str);\n      return bytesStr.length == 0;\n    }\n/****************************************************************************************************************\nMODIFIERS\n ****************************************************************************************************************/\n      // Check if the user exits\n    modifier userExists(address _userId) {\n       // The user could be a patient or a doctor\n       require (_userId != address(0x0), 'The user should exist');\n       _;\n    }\n    // Check if the user has access to the requested iformation  \n    modifier hasAccess(address _userId_1 ,address _userId_2) {\n       require (_userId_1 == _userId_2 , \"You do not have access to the requested information\");\n       _;\n    }\n\n}\n\n",
  "sourcePath": "/Users/mmz_10/Desktop/MASc (UBC)/2020 Winter/Courses/EECE 571G/Blockchian Project /Preparation/IPFS/my-app/src/contracts/Meme.sol",
  "compiler": {
    "name": "solc",
    "version": "0.5.16+commit.9c3226ce.Emscripten.clang"
  },
  "schemaVersion": "3.0.23",
  "updatedAt": "2020-04-03T16:21:02.221Z",
  "networkType": "ethereum",
  "devdoc": {
    "methods": {}
  },
  "userdoc": {
    "methods": {
      "addFileHash(address,string)": {
        "notice": "************************************************************************************************************** MEDICAL FILE HASHES***************************************************************************************************************"
      },
      "getListOfEnrpytedPassphrases(address)": {
        "notice": "************************************************************************************************************** PASSPHRASES:***************************************************************************************************************"
      },
      "grantAccessToDoctor(address,string,string,string,string)": {
        "notice": "************************************************************************************************************** GRANTING ACCESS***************************************************************************************************************"
      },
      "registerPatient(address,string)": {
        "notice": "************************************************************************************************************** USER REGISTRATION***************************************************************************************************************"
      },
      "revokeAccessFromDoctor(address)": {
        "notice": "************************************************************************************************************** REVOKING ACCESS***************************************************************************************************************"
      }
    }
  }
}